:100000000C9446000C9465000C9465000C946500FB
:100010000C9465000C9465000C9465000C946500CC
:100020000C9465000C9465000C9465000C946500BC
:100030000C9465000C9465000C9465000C946500AC
:100040000C9465000C9465000C9465000C9465009C
:100050000C9465000C9465000C9465000C9465008C
:100060000C9465000C9465000C9465000C9465007C
:100070000C9465000C9465000C9465000C9465006C
:100080000C9465000C9465000C94650011241FBE4F
:10009000CFEFD0E4DEBFCDBF11E0A0E0B1E0E2EAF7
:1000A000F1E000E00BBF02C007900D92AE30B10747
:1000B000D9F721E0AEE0B1E001C01D92A131B20755
:1000C000E1F70E94C3000C94CF000C940000CF9382
:1000D000C82F8A3019F48DE00E9467008091C0001B
:1000E00085FFFCCFC093C60080E090E0CF910895DB
:1000F00080B1282F217080910F01909110018130E3
:100100009105F1F030F08230910509F1039741F04B
:1001100026C083E090E09093100180930F011FC0F0
:10012000211107C081E090E09093100180930F01AE
:1001300016C083E090E09093100180930F010FC0F0
:1001400082E090E09093100180930F0108C0222379
:1001500031F083E090E09093100180930F01809143
:100160000F0190911001019751F480910E018F3F82
:1001700021F0895F80930E0102C010920E018091E0
:100180000E0188B908951092100110920F0111B854
:100190008FEF82B987B918B80E947800FDCFF89424
:0201A000FFCF8F
:0E01A2000000000200000000670000000000E6
:00000001FF
