:100000000C9446000C9465000C9465000C946500FB
:100010000C9465000C9465000C9465000C946500CC
:100020000C9465000C9465000C9465000C946500BC
:100030000C9465000C9465000C9465000C946500AC
:100040000C9465000C9465000C9465000C9465009C
:100050000C9465000C9465000C9465000C9465008C
:100060000C9465000C9465000C9465000C9465007C
:100070000C9465000C9465000C9465000C9465006C
:100080000C9465000C9465000C94650011241FBE4F
:10009000CFEFD0E4DEBFCDBF11E0A0E0B1E0EEE3F2
:1000A000F2E000E00BBF02C007900D92AE30B10746
:1000B000D9F721E0AEE0B1E001C01D92A031B20756
:1000C000E1F70E9410010C941D010C940000CF93E5
:1000D000C82F8A3019F48DE00E9467008091C0001B
:1000E00085FFFCCFC093C60080E090E0CF910895DB
:1000F00080910E0190910F018230910509F458C052
:1001000030F4009759F0019709F443C067C0833079
:10011000910559F0049709F45AC060C083E090E05B
:1001200090930F0180930E015FC080B190E08095A5
:10013000909583709927019739F481E090E090932E
:100140000F0180930E0150C080B190E08095909592
:1001500083709927029739F482E090E090930F0121
:1001600080930E0141C080B190E08095909583709E
:100170009927039739F484E090E090930F018093DE
:100180000E0132C083E090E090930F0180930E0146
:100190002BC080B190E08095909583709927892B32
:1001A00019F583E090E090930F0180930E011CC03D
:1001B00080B190E08095909583709927892BA1F468
:1001C00083E090E090930F0180930E010DC083E0D7
:1001D00090E090930F0180930E0106C083E090E0C1
:1001E00090930F0180930E0180910E0190910F0169
:1001F0008230910561F08430910581F0019779F4A6
:1002000088B1883061F088B18F5F88B9089588B16E
:10021000882329F088B1815088B9089518B80895C5
:1002200011B88FEF82B987B987E088B910920F01B2
:0E02300010920E010E947800FDCFF894FFCFCF
:0E023E00000000020000000067000000000049
:00000001FF
