:100000000C944D000C946C000C946C000C946C00DF
:100010000C946C000C946C000C946C000C946C00B0
:100020000C946C000C946C000C946C000C946C00A0
:100030000C946C000C946C000C946C000C946C0090
:100040000C946C000C946C000C946C000C946C0080
:100050000C946C000C946C000C946C000C946C0070
:100060000C946C000C946C000C946C000C946C0060
:100070000C946C000C946C000C946C000C946C0050
:100080000C946C000C946C000C946C009100BC00FF
:10009000C300B500CA00D300980011241FBECFEFE3
:1000A000D0E4DEBFCDBF11E0A0E0B1E0E8E2F2E0D5
:1000B00000E00BBF02C007900D92A031B107D9F745
:1000C00021E0A0E1B1E001C01D92A231B207E1F749
:1000D0000E94FD000C9412010C940000CF93C82FD5
:1000E0008A3019F48DE00E946E008091C00085FF77
:1000F000FCCFC093C60080E090E0CF91089580B11E
:10010000982F917080B180958270E0911001F091EC
:100110001101E730F10508F04EC0EA5BFF4F0C9487
:10012000090186E090E0909311018093100143C093
:10013000911109C0882339F083E090E09093110178
:100140008093100138C0911107C081E090E0909336
:100150001101809310012FC0882369F182E090E0A3
:10016000909311018093100126C086E090E0909357
:100170001101809310011FC084E090E09093110161
:100180008093100118C085E090E090931101809356
:10019000100111C0992379F086E090E0909311014D
:1001A0008093100108C0811106C086E090E0909312
:1001B0001101809310018091100190911101823002
:1001C000910569F08330910591F0019791F4809148
:1001D0000001893070F48F5F809300010AC0809124
:1001E0000001882331F081508093000102C01092F9
:1001F00000018091000188B90895109211011092B8
:10020000100111B88FEF82B987B918B80E947F002A
:10021000FDCFEE0FFF1F0024001C0BBE0790F691D0
:08022000E02D0994F894FFCFD2
:100228000700000002000000006E0000000000004F
:00000001FF
